:100000000C9446000C9465000C9465000C946500FB
:100010000C9465000C9465000C9465000C946500CC
:100020000C9465000C9465000C9465000C946500BC
:100030000C9465000C9465000C9465000C946500AC
:100040000C9467000C9465000C9425020C946500D8
:100050000C9465000C9465000C9465000C9465008C
:100060000C9465000C9465000C9465000C9465007C
:100070000C9465000C9465000C9465000C9465006C
:100080000C9465000C9465000C94650011241FBE4F
:10009000CFEFD0E1DEBFCDBF11E0A0E0B1E0E4E4FE
:1000A000F5E000E00BBF02C007900D92A031B10750
:1000B000D9F712E0A0E1B1E001C01D92AB31B10768
:1000C000E1F70E9448010C94A0020C9400001F92DA
:1000D0000F920FB60F920BB60F9211242F933F93EE
:1000E0004F935F936F937F938F939F93AF93EF9310
:1000F000FF938DEC82BF80915101882309F052C09B
:1001000050911001652F70E020E030E0660F771FFE
:10011000660F771FAFEF213049F0213028F02230F1
:1001200039F0233041F406C0949805C0959803C077
:10013000969801C09798000000000000000099B355
:10014000909543B3409582B3806F82BB80911A0231
:10015000882349F4992311F0A0931A02442361F0F3
:10016000A0931A0209C0FB01E20FF31FEE0FFF1F5D
:10017000EE5AFE4F908341832F5F3F4F243031056D
:1001800051F680911A02882369F0852F8F5F809342
:100190001001893139F41092100110921A028FEF78
:1001A00080935101FF91EF91AF919F918F917F913A
:1001B0006F915F914F913F912F910F900BBE0F90D8
:1001C0000FBE0F901F901895FC0190E005C05D9B3D
:1001D000FECF81918CB99F5F9617C8F3089526B71B
:1001E000246026BF28EE33E040E050E00E94810208
:1001F00026E096958795779567952A95D1F72FEF05
:100200003FEF40E050E0261B370B480B590B3DBD3C
:100210002CBD85E08EBD06B602FEFDCF1EBC089546
:1002200022E531E0C90160E070E048EC50E00E9456
:100230007A0210921A02109251011ABA9FEF9BBBD8
:1002400014BA95BB17BA18BA91BB92BB82EC82B9AB
:1002500093B910926100109262001092900083E3B3
:1002600089B988E98AB986E08093950086B781606C
:1002700086BF87B7816087BF8DEC82BF84E083BF74
:1002800086B7806486BF14BC85E085BD78940895E8
:100290002F923F924F925F926F927F928F929F9296
:1002A000AF92BF92CF92DF92EF92FF920F931F9384
:1002B000CF93DF930E9410017724EE2499248824A1
:1002C0003EEF232E33243A9421E1422E21E0522E98
:1002D00090E4692E06B606FE1DC086B7806486BF10
:1002E00081B180958725982290948924882289213C
:1002F000882178268721E82AE2FE05C05D9BFECF93
:100300002CB88BEFE822E3FE05C05D9BFECF3CB826
:10031000E7EFEE22809151018823E1F2F201862D70
:1003200011928A95E9F700E010E041C09F5F8C913F
:100330008F2141F0F901E90FF11DEF5EFE4F808141
:100340008F5F8083FF0C973089F74F5F5F4F42309C
:10035000510589F0FF24F39490E0DE01A40FB51F4E
:10036000AE5ABE4F9601240F351F83E0220F331F74
:100370008A95E1F7DCCF6F5F7F4F6430710559F0EC
:1003800040E050E0E501C60FD71FCC0FDD1F6B0129
:10039000CC0CDD1CDFCF0F5F1F4F0931110539F485
:1003A000A0E080E000E0B0E060E070E02DC060E040
:1003B00070E05801AA0CBB1CAA0CBB1CE1CF2A2F71
:1003C000A0812A1710F0A22F03C0892F012FB32F6D
:1003D0003F5F3196383099F74F5F5F4F423051059C
:1003E00071F0142FFA01EC0FFD1F23E0EE0FFF1F39
:1003F0002A95E1F7EF5EFE4F2A2F30E0E1CF6F5FE5
:100400007F4F6430710539F0962F40E050E0EB01EA
:10041000CC0FDD1FE6CFA230A8F05D9BFECFBF5F03
:1004200090E0880F991F800F911D33E0880F991F6E
:100430003A95E1F7B80FBCB968EC70E080E090E065
:100440000E94EF001092510145CF1F920F920FB6FC
:100450000F920BB60F9211248F939F93AF93BF937C
:10046000EF93FF93DF93CF930F92CDB7DEB79CB19D
:100470009B3129F4F89413BE0C94000F2BC09923E0
:1004800021F45D9BFECF8FEF0DC0892F8450853006
:1004900020F45D9BFECF1CB81DC0903129F45D9BFC
:1004A000FECF84E08CB916C09131A1F49983A0E00D
:1004B000B1E0FD0101900020E9F73197EA1BFB0B49
:1004C000EF5F90E005C05D9BFECF8D918CB99F5F83
:1004D0009E17C8F30F90CF91DF91FF91EF91BF91DD
:1004E000AF919F918F910F900BBE0F900FBE0F9009
:1004F0001F901895DC0101C06D9341505040E0F70A
:100500000895629FD001739FF001829FE00DF11D5D
:10051000649FE00DF11D929FF00D839FF00D749F7D
:10052000F00D659FF00D9927729FB00DE11DF91F29
:10053000639FB00DE11DF91FBD01CF011124089586
:04054000F894FFCF5D
:10054400446172745F323030395F30375F31390063
:00000001FF
